:0200000480007A
:100000006F008004732F2034930F80006308FF0378
:10001000930F90006304FF03930FB0006300FF038E
:10002000130F000063040F0067000F00732F2034CC
:1000300063540F006F00400093E19153171F0000BD
:1000400023223FFC6FF09FFF93000000130100008C
:10005000930100001302000093020000130300004C
:100060009303000013040000930400001305000034
:10007000930500001306000093060000130700001C
:100080009307000013080000930800001309000004
:1000900093090000130A0000930A0000130B0000EC
:1000A000930B0000130C0000930C0000130D0000D4
:1000B000930D0000130E0000930E0000130F0000BC
:1000C000930F0000732540F16310050097020000B4
:1000D000938202017390523073500018970200000F
:1000E00093824202739052309B021000939252030B
:1000F0009382F2FF7390023B9302F0017390023AF5
:100100009702000093828201739052307350203026
:10011000735030307350403093010000970200005C
:10012000938282EE73905230130510001315F5017F
:10013000635C05000F00F00F930110009308D005D9
:10014000130500007300000093020000638A0200A0
:1001500073905210B7B200009B82921073902230BD
:100160007350003097020000938242017390123462
:10017000732540F1730020309306F0061725000028
:10018000031545E8972500008395E5E71300000077
:100190001300000013000000130000001300000013
:1001A0001300000013000000130000001300000003
:1001B00013000000130000001300000013000000F3
:1001C00097020000239AA200970200002397B20032
:1001D0000F1000009386E60D130000009303C01B70
:1001E00093012000639A7606130740061307F7FF72
:1001F000E31E07FE970200002396A2049702000068
:100200002393B2040F10000013000000130000003D
:100210001300000013000000130000001300000092
:100220001300000013000000130000001300000082
:100230001300000013000000130000001300000072
:100240009386B62213000000930390309301300090
:1002500063947600631030020F00F00F638001009A
:100260009391110093E111009308D00513850100CB
:10027000730000000F00F00F930110009308D005E9
:100280001305000073000000731000C000000000A0
:10029000000000000000000000000000000000005E
:1002A000000000000000000000000000000000004E
:1010000000000000000000000000000000000000E0
:1010100000000000000000000000000000000000D0
:1010200000000000000000000000000000000000C0
:1010300000000000000000000000000000000000B0
:081040000000000000000000A8
:102000009386D614000000000000000000000000CD
:040000058000000077
:00000001FF
