:0200000480007A
:100000006F00C0006F2000266F20C0259300000005
:10001000130100009301000013020000930200008E
:100020001303000093030000130400009304000076
:10003000130500009305000013060000930600005E
:100040001307000093070000130800009308000046
:100050001309000093090000130A0000930A00002E
:10006000130B0000930B0000130C0000930C000016
:10007000130D0000930D0000130E0000930E0000FE
:10008000130F0000930F000097020000938202F804
:1000900073905230178100001301C163F32240F1C5
:1000A0009392C2003301510073100134EF2090236A
:1000B00017350000130585A36F20807F83328510DC
:1000C000739012148330850003310501833185015B
:1000D000033205028332850203330503833385032C
:1000E000033405048334850483358505033605060A
:1000F00083368506033705078337850703380508E8
:10010000833885080339050983398509033A050AC7
:10011000833A850A033B050B833B850B033C050CA7
:10012000833C850C033D050D833D850D033E050E87
:10013000833E850E033F050F833F850F033505057D
:10014000730020107311011423341100233C31007B
:10015000233041022334510223386102233C7102CF
:1001600023308104233491042338A104233CB104B7
:100170002330C1062334D1062338E106233CF1069F
:10018000233001092334110923382109233C310983
:100190002330410B2334510B2338610B233C710B6B
:1001A0002330810D2334910D2338A10D233CB10D53
:1001B0002330C10F2334D10F2338E10F233CF10F3B
:1001C000F312011423385100F32200102330511090
:1001D000F322101423345110F32230142338511019
:1001E000F3222014233C5110130501006F20403AE4
:1010000000000000000000000000000000000000E0
:1010100000000000000000000000000000000000D0
:1010200000000000000000000000000000000000C0
:1010300000000000000000000000000000000000B0
:081040000000000000000000A8
:10200000B3E7C500B367F50093F77700B306C500E3
:10201000638407023386C50093070500637ED502FB
:1020200003C705009385150093871700A38FE7FE6C
:10203000E398C5FE67800000E37ED5FE93070500A8
:1020400003B70500938787009385850023BCE7FECF
:10205000E3E8D7FE6780000067800000B367C50033
:1020600093F777003306C50093F5F50F638E0700ED
:10207000930705006372C50493871700A38FB7FE0B
:10208000E31CF6FE6780000093978500B3E5B70078
:1020900093970501B3E7B70093950702B3E5F50001
:1020A000E372C5FE930705009387870023BCB7FE44
:1020B000E3ECC7FE678000006780000083470500EF
:1020C000638E07009307050003C717009387170067
:1020D000E31C07FE3385A74067800000130500005E
:1020E00067800000834705009385150013051500E0
:1020F00003C7F5FF638A0700E386E7FE1B85070039
:102100003B05E54067800000130500006FF05FFFAE
:10211000B367B50093F77700639E0702137886FFD5
:102120003308050163780503930705006F0000017C
:10213000938787009385850063F8070183B60700BE
:1021400003B70500E386E6FE3385A7403306A640C5
:10215000138507003386C5006F00400103C70500E3
:102160008347F5FF93851500639AE7001305150073
:10217000E396C5FE13050000678000003B85E7403D
:10218000678000009307050003C7050093871700C9
:1021900093851500A38FE7FEE31807FE6780000014
:1021A0000347050093060002930705006318D70054
:1021B00003C7170093871700E30CD7FE9306D002DE
:1021C0006300D7069306B0026300D70483C60700F6
:1021D000930500006382060413050000938717002F
:1021E0001B8606FD1317250083C607003305A700CD
:1021F000131515003305A600E39206FE6380050261
:102200003305A0406780000083C6170093050000D7
:1022100093871700E39206FC130500006780000017
:1022200083C617009305100093871700E39606FAFC
:10223000130500006FF09FFE97F7FFFF938787DC81
:1022400083B6070013070500638A060097F6FFFFB1
:1022500023BA06DE83B60700E39A06FE23B0E70042
:102260006F000000130101FF1305903423341100A7
:10227000EFF09FFC130101FE13068100930771012B
:10228000130890006F008000930707009376F50015
:1022900013870600930500036374D8009305700547
:1022A0003B07B7002380E700135545001387F7FF6E
:1022B000E31CF6FC83478100230C010063820704C2
:1022C000130510109306060017F7FFFF130787D3B7
:1022D00013150503833507009386160033E6A70020
:1022E000638A050097F7FFFF23BE07D483370700F3
:1022F000E39A07FE83C706002330C700E39C07FC70
:102300001301010267800000B7F6FFFF3307D50015
:10231000B7E703006370F7149358C500138808608B
:1023200017160000130606CE93173800B307F60001
:1023300003B707003375D5006306070293760704D9
:10234000638C060E93760708639206169306F000D8
:10235000639ED5141367070823B0E70073000512C6
:1023600067800000975600009386464803B7060032
:1023700063040718833787009755000083B58546A7
:1023800023B0F6006382B70C83370700931538003B
:10239000B305B60093D7C7009397A70013E3F70DD3
:1023A00093E6F70123B0650073000512975700000C
:1023B0009387470493984800B388170183B70800B0
:1023C000639207188337070023B0F800833787002C
:1023D00023B4F800B7080400F3A80810B707E0FF1B
:1023E000B307F500B715000013070500B385B70064
:1023F00003BF070083BE870003BE070103B3870145
:102400002330E7012334D7012338C701233C670079
:102410009387070213070702E39CB7FC7390081029
:1024200013183800330606012330D6007300051256
:102430000F100000678000001367070423B0E70057
:1024400073000512678000009757000023BC07380F
:102450006FF09FF313061010130710049716000077
:102460009386469397F7FFFF9387C7B91316060322
:1024700003B5070093861600B365C700630A05001D
:1024800017F7FFFF233007BC03B70700E31A07FE67
:1024900003C7060023B0B700E31C07FC130101FFCC
:1024A0001305300023341100EFF01FD9130610106C
:1024B00013071004971600009386469297F7FFFFC4
:1024C000938747B41316060303B5070093861600D7
:1024D000B365C700630A050017F7FFFF233407B68B
:1024E00003B70700E31A07FE03C7060023B0B700CF
:1024F000E31C07FC6FF09FFA9306101013071004FB
:10250000171600001306069297F7FFFF938787AF11
:102510009396060303B5070013061600B365D700AC
:10252000630A050017F7FFFF233E07B003B7070054
:10253000E31A07FE0347060023B0B700E31C07FCBD
:102540006FF0DFF593061010130710041716000044
:102550001306C68E97F7FFFF9387C7AA93960603C5
:1025600003B5070013061600B365D700630A05001C
:1025700017F7FFFF233807AC03B70700E31A07FE7E
:102580000347060023B0B700E31C07FC6FF01FF100
:1025900083358511130101F823388106233C110688
:1025A0002334910623302107233C3105233841058C
:1025B0002334510523306105233C71032338810303
:1025C000233491032330A103233CB10193078000FE
:1025D000130405006386F512930720006380F50657
:1025E000938745FF130710006376F7009307F00009
:1025F000639EF51C03350411EFF01FD11305040091
:1026000003340107833081078334810603390106CF
:1026100083398105033A0105833A8104033B0104B0
:10262000833B8103033C0103833C8102033D0102A0
:10263000833D8101130101086FD05FA80337851026
:102640009377370063980706EF0780007310300018
:102650000327070083A70700630AF7041305101078
:1026600093071004971600009386C68A17F7FFFF9A
:102670001307479913150503833507009386160042
:1026800033E6A700638A050097F7FFFF23BC079A8C
:1026900083370700E39A07FE83C706002330C7008D
:1026A000E39C07FC13053000EFF01FB91305100081
:1026B000EFF09FB89307101017160000130606835B
:1026C0009306100417F7FFFF1307C79393970703A9
:1026D0000335070013061600B3E5F600630A05008C
:1026E00097F6FFFF23B0069683360700E39A06FEAF
:1026F000834606002330B700E39C06FC6FF09FFA88
:1027000003290505371C000097540000938484CEEC
:10271000971B0000938B0B8F370B0400B70AE0FF69
:10272000975D0000938D0D0C175A0000130A0A0CD8
:10273000B7F903006F0080012334F70023B0FD00D8
:10274000B7170000330CFC0063003C179357CC0014
:10275000139447003387840003370700E30207FE22
:102760009387076093973700B387FB0083BC07000C
:1027700093F70C046386070E732D0B1037160000B9
:10278000B3055C0113050C002334B100EFF05F9832
:10279000630E050093FC0C0883358100638E0C06E4
:1027A0003716000013050C00EFF09F85B3878400F7
:1027B00073100D1003B70D0023B00700E31E07F6DA
:1027C00023B0FD002330FA006FF09FF7930710103D
:1027D00013061004970600009386C67617F7FFFFCE
:1027E0001307478293970703033507009386160064
:1027F000B365F600630A050017F6FFFF233406846D
:1028000003360700E31A06FE03C606002330B700AE
:10281000E31C06FC6FF01FE9930710101306100469
:10282000970600009386066917E7FFFF1307877D69
:102830009397070393861600B365F6006F00C000F8
:1028400017F6FFFF2330068003360700E31A06FE63
:1028500003C606002330B700E31E06FC6FF09FE4BA
:102860009307101013061004970600009386066164
:1028700017E7FFFF1307077993970703938616005F
:10288000B365F6006F00C00017E6FFFF233C067A31
:1028900003360700E31A06FE03C606002330B7001E
:1028A000E31E06FC6FF01FE013050900EFF0DF9850
:1028B000F32740F1639807189727000093878774E0
:1028C000130101ED93D7C7002330811217380000A0
:1028D00013084873130405009397A7001715000009
:1028E00013054572233411129356C5001357C800BF
:1028F00093E71700970800009388C8701306F0FF4D
:10290000233CF5FE9396A6001317A700B7070020F7
:1029100093E616001367170093D5C8001313F60348
:102920009387F70C233CF8FE23B0D8002330E50052
:10293000B3E765007390071873270018639CE714CA
:102940001356B6009307F0019702000093824201EC
:10295000F39252307310063B7390073A73905230E3
:102960001308F0BF1318580197D7FFFF9387C77D4F
:10297000B387070173905710F3270034B38707011B
:1029800073900714B7B700009B8707107390273028
:10299000B7E701009B8707607390073073504030A2
:1029A0001747000013070766B30707019386073E22
:1029B00017560000233CF6E2B708080097570000BE
:1029C00023B2D7E2175300001303C3A29307D0002A
:1029D0009388F8031308080113D61700B38617016C
:1029E000B347F600B30507019396C60093975700C7
:1029F0002330D7002334B70093F7070213070701EA
:102A0000B367F600E31AE3FC130600129305000017
:102A1000130501009757000023BA079CEFF00FE45D
:102A2000B70700803304F40013050100233481103C
:102A3000EFD0CFE883308112033401121301011368
:102A40006780000013061000B7E7C604B70508004A
:102A50001315F601938767459385C5FF1316E603A3
:102A60006F00C0012F20070013D71700B3C7E7007E
:102A70009397E703B3F7C700B3E7E70033F7B7006F
:102A800093F617003307A700E39E06FC0320070018
:102A90006FF09FFD930710101306100497060000B7
:102AA0009386464D17E7FFFF1307C7559397070314
:102AB0000335070093861600B365F600630A050028
:102AC00017E6FFFF2330065803360700E31A06FE19
:102AD00003C606002330B700E31C06FC13053000D4
:102AE000EFF08FF567800000930000001B87000067
:102AF0009303000093012000631C772693001000CD
:102B00001B87100093032000930130006312772687
:102B1000930030001B8770009303A00093014000D6
:102B200063187724930000001B87008093030080C4
:102B300093015000631E7722B70000801B870000BE
:102B4000B70300809301600063147722B700008010
:102B50001B870080B70300809B8303809301700074
:102B600063187720930000001B87F07F9303F07FAA
:102B700093018000631E771EB70000809B80F0FFEA
:102B80001B870000B70300809B83F3FF9301900035
:102B90006310771EB70000809B80F0FF1B87F07FDB
:102BA000B70300809B83E37F9301A0006312771C2F
:102BB000B70000801B87F07FB70300809B83F37F03
:102BC0009301B0006316771AB70000809B80F0FF76
:102BD0001B870080B7F3FF7F9B83F37F9301C000C7
:102BE00063187718930000001B87F0FF9303F0FF32
:102BF0009301D000631E77169300F0FF1B8710002F
:102C0000930300009301E000631477169300F0FF34
:102C10001B87F0FF9303E0FF9301F000631A771422
:102C2000B70000809B80F0FF1B871000B703008077
:102C300093010001631E77129300D0009B80B000C7
:102C4000930380019301100163947012130200003A
:102C50009300D0001B87B00013030700130212007B
:102C600093022000E31652FE93038001930120019A
:102C700063107310130200009300D0001B87A000A4
:102C80001300000013030700130212009302200038
:102C9000E31452FE9303700193013001631A730C25
:102CA000130200009300D0001B8790001300000067
:102CB0001300000013030700130212009302200008
:102CC000E31252FE93036001930140016312730A01
:102CD000130200009300D0001B87B0001302120003
:102CE00093022000E31852FE9303800193015001E8
:102CF00063107708130200009300D0001300000057
:102D00001B87A0001302120093022000E31652FE5C
:102D10009303700193016001631C770413020000A8
:102D20009300D00013000000130000001B879000E8
:102D30001302120093022000E31452FE9303600179
:102D400093017001631677029B0000029303000257
:102D500093018001639E7000930010021B8020038A
:102D6000930300009301900163147000631A300014
:102D70001395110063000500136515007300000032
:0C2D80001305100073000000731000C069
:102D9000417373657274696F6E206661696C6564F6
:102DA0003A2061646472203E3D202831554C203C1D
:102DB0003C203132292026262061646472203C2088
:102DC0003633202A202831554C203C3C20313229F2
:102DD0000A00000000000000417373657274696F9F
:102DE0006E206661696C65643A20212870745B33DB
:102DF0005D5B616464722F2831554C203C3C20316E
:102E000032295D20262030783038302920262620AF
:102E10006361757365203D3D203078660A000000CF
:102E2000417373657274696F6E206661696C656465
:102E30003A206E6F64650A00417373657274696F3E
:102E40006E206661696C65643A20757365725F6DAA
:102E5000617070696E675B616464722F2831554CD4
:102E6000203C3C203132295D2E61646472203D3D5E
:102E700020300A0000000000417373657274696FAE
:102E80006E206661696C65643A2070745B335D5BCB
:102E9000616464722F2831554C203C3C203132292A
:102EA0005D20262030783034300A00000000000019
:102EB000417373657274696F6E206661696C6564D5
:102EC0003A2070745B335D5B616464722F28315506
:102ED0004C203C3C203132295D202620307830388F
:102EE000300A000000000000417373657274696F5E
:102EF0006E206661696C65643A2074662D3E65706B
:102F00006320252034203D3D20300A0000000000D1
:102F1000417373657274696F6E206661696C656474
:102F20003A202122696C6C6567616C20696E73744C
:102F300072756374696F6E220A0000000000000061
:102F4000417373657274696F6E206661696C656444
:102F50003A202122756E657870656374656420651A
:102F60007863657074696F6E220A000000000000CB
:102F7000417373657274696F6E206661696C656414
:102F80003A202122756E737570706F7274656420BB
:0C2F900073617470206D6F6465220A008C
:040000058000000077
:00000001FF
