:0200000480007A
:100000006F008004732F2034930F80006308FF0378
:10001000930F90006304FF03930FB0006300FF038E
:10002000130F000063040F0067000F00732F2034CC
:1000300063540F006F00400093E19153171F0000BD
:1000400023223FFC6FF09FFF93000000130100008C
:10005000930100001302000093020000130300004C
:100060009303000013040000930400001305000034
:10007000930500001306000093060000130700001C
:100080009307000013080000930800001309000004
:1000900093090000130A0000930A0000130B0000EC
:1000A000930B0000130C0000930C0000130D0000D4
:1000B000930D0000130E0000930E0000130F0000BC
:1000C000930F0000732540F16310050097020000B4
:1000D000938202017390523073500018970200000F
:1000E0009382020273905230B70200809382F2FF33
:1000F0007390023B9302F0017390023A9702000062
:10010000938282017390523073502030735030309C
:100110007350403093010000970200009382C2EEBA
:1001200073905230130510001315F501634C050050
:100130000F00F00F930110009308D0051305000085
:10014000730000009702000093824218638A020045
:1001500073905210B7B200009382921073902230C5
:1001600073500030371500001305058073200530EB
:10017000130520027320353097020000938242015C
:1001800073901234732540F1730020307310001403
:10019000732500149303000093010001631E750E84
:1001A0007355001473D50714930300009301F000F6
:1001B0006314750E73D0011473250014930330007B
:1001C00093012000631A750CF3F5001493033000BB
:1001D000930130006392750C736602149303200040
:1001E00093014000631A760AF356011493036000EA
:1001F000930150006392760A3725AD0B1305A5DEF7
:10020000F3150514930320009301600063967508AD
:10021000372500001305A5DE73350514B723AD0B94
:100220009383A3DE930170006318750637C5000041
:100230001305F5EE73250514B703AD0B930180008C
:10024000631C750473250014B7C3AD0B9383F3EEE1
:1002500093019000631275049302001073B00210B2
:100260009702000093820201739012147300201011
:1002700013000000930300009301C000631E700090
:100280000F00F00F930110009308D0051305000034
:1002900073000000631030020F00F00F6380010054
:1002A0009391110093E111009308D005138501008B
:1002B000730000000F00F00F930110009308D005A9
:1002C00013050000730000009302900063E65100E4
:1002D0009302B00063F23202F32220141303800071
:1002E000E39C62FA0F00F00F930110009308D00511
:1002F0001305000073000000F322201413032000F4
:10030000E39C62F8F322101493824200739012145B
:1003100073002010731000C00000000000000000F7
:1003200000000000000000000000000000000000CD
:1003300000000000000000000000000000000000BD
:1010000000000000000000000000000000000000E0
:1010100000000000000000000000000000000000D0
:1010200000000000000000000000000000000000C0
:1010300000000000000000000000000000000000B0
:081040000000000000000000A8
:1020000001000000000000000000000000000000CF
:040000058000000077
:00000001FF
