:0200000480007A
:100000006F008004732F2034930F80006308FF0378
:10001000930F90006304FF03930FB0006300FF038E
:10002000130F000063040F0067000F00732F2034CC
:1000300063540F006F00400093E19153171F0000BD
:1000400023223FFC6FF09FFF93000000130100008C
:10005000930100001302000093020000130300004C
:100060009303000013040000930400001305000034
:10007000930500001306000093060000130700001C
:100080009307000013080000930800001309000004
:1000900093090000130A0000930A0000130B0000EC
:1000A000930B0000130C0000930C0000130D0000D4
:1000B000930D0000130E0000930E0000130F0000BC
:1000C000930F0000732540F16310050097020000B4
:1000D000938202017390523073500018970200000F
:1000E0009382020273905230B70200809382F2FF33
:1000F0007390023B9302F0017390023A9702000062
:10010000938282017390523073502030735030309C
:100110007350403093010000970200009382C2EEBA
:1001200073905230130510001315F501634C050050
:100130000F00F00F930110009308D0051305000085
:100140007300000093020000638A02007390521053
:10015000B7B2000093829210739022307350003037
:10016000970200009382420173901234732540F18C
:100170007300203093012000930200001703000059
:1001800013030301E70203006F00000C17030000D4
:100190001303C3FF639A620A930140001302000035
:1001A0001703000013030301E7060300631E300872
:1001B0001302120093022000E31452FE9301500038
:1001C0001302000017030000130343011300000093
:1001D000E7060300631A30061302120093022000A0
:1001E000E31252FE930160001302000017030000A7
:1001F000130383011300000013000000E70603004F
:10020000631430041302120093022000E31052FE24
:1002100093021000170300001303C3016700C3FF1C
:100220009382120093821200938212009382120032
:100230009382120093821200930340009301700096
:1002400063947200631030020F00F00F63800100AE
:100250009391110093E111009308D00513850100DB
:10026000730000000F00F00F930110009308D005F9
:0C0270001305000073000000731000C0B4
:1010000000000000000000000000000000000000E0
:1010100000000000000000000000000000000000D0
:1010200000000000000000000000000000000000C0
:1010300000000000000000000000000000000000B0
:081040000000000000000000A8
:040000058000000077
:00000001FF
